{
  "_format": "hh-sol-artifact-1",
  "contractName": "EventContract",
  "sourceName": "contracts/organiser.sol",
  "abi": [
    {
      "inputs": [
        {
          "internalType": "string",
          "name": "name",
          "type": "string"
        },
        {
          "internalType": "uint256",
          "name": "date",
          "type": "uint256"
        },
        {
          "internalType": "uint256",
          "name": "price",
          "type": "uint256"
        },
        {
          "internalType": "uint256",
          "name": "TotalTickets",
          "type": "uint256"
        }
      ],
      "name": "CreateEvent",
      "outputs": [],
      "stateMutability": "nonpayable",
      "type": "function"
    },
    {
      "inputs": [
        {
          "internalType": "uint256",
          "name": "id",
          "type": "uint256"
        },
        {
          "internalType": "uint256",
          "name": "Qty",
          "type": "uint256"
        }
      ],
      "name": "buyTicket",
      "outputs": [],
      "stateMutability": "payable",
      "type": "function"
    },
    {
      "inputs": [
        {
          "internalType": "uint256",
          "name": "",
          "type": "uint256"
        }
      ],
      "name": "events",
      "outputs": [
        {
          "internalType": "address",
          "name": "organiser",
          "type": "address"
        },
        {
          "internalType": "string",
          "name": "name",
          "type": "string"
        },
        {
          "internalType": "uint256",
          "name": "date",
          "type": "uint256"
        },
        {
          "internalType": "uint256",
          "name": "price",
          "type": "uint256"
        },
        {
          "internalType": "uint256",
          "name": "TotalTickets",
          "type": "uint256"
        },
        {
          "internalType": "uint256",
          "name": "ticketLeft",
          "type": "uint256"
        }
      ],
      "stateMutability": "view",
      "type": "function"
    },
    {
      "inputs": [],
      "name": "nextId",
      "outputs": [
        {
          "internalType": "uint256",
          "name": "",
          "type": "uint256"
        }
      ],
      "stateMutability": "view",
      "type": "function"
    },
    {
      "inputs": [
        {
          "internalType": "address",
          "name": "",
          "type": "address"
        },
        {
          "internalType": "uint256",
          "name": "",
          "type": "uint256"
        }
      ],
      "name": "tickets",
      "outputs": [
        {
          "internalType": "uint256",
          "name": "",
          "type": "uint256"
        }
      ],
      "stateMutability": "view",
      "type": "function"
    },
    {
      "inputs": [
        {
          "internalType": "uint256",
          "name": "eventID",
          "type": "uint256"
        },
        {
          "internalType": "uint256",
          "name": "quantity",
          "type": "uint256"
        },
        {
          "internalType": "address",
          "name": "to",
          "type": "address"
        }
      ],
      "name": "transfer",
      "outputs": [],
      "stateMutability": "nonpayable",
      "type": "function"
    }
  ],
  "bytecode": "0x608060405234801561001057600080fd5b50611353806100206000396000f3fe6080604052600436106100555760003560e01c80630b7914301461005a578063289df2cb1461009c578063298ec208146100c557806361b8ce8c146100e1578063dae7a13c1461010c578063e41bd06c14610149575b600080fd5b34801561006657600080fd5b50610081600480360381019061007c91906108f2565b610172565b60405161009396959493929190610a08565b60405180910390f35b3480156100a857600080fd5b506100c360048036038101906100be9190610a9c565b610256565b005b6100df60048036038101906100da9190610aef565b61046c565b005b3480156100ed57600080fd5b506100f6610651565b6040516101039190610b2f565b60405180910390f35b34801561011857600080fd5b50610133600480360381019061012e9190610b4a565b610657565b6040516101409190610b2f565b60405180910390f35b34801561015557600080fd5b50610170600480360381019061016b9190610cbf565b61067c565b005b60006020528060005260406000206000915090508060000160009054906101000a900473ffffffffffffffffffffffffffffffffffffffff16908060010180546101bb90610d71565b80601f01602080910402602001604051908101604052809291908181526020018280546101e790610d71565b80156102345780601f1061020957610100808354040283529160200191610234565b820191906000526020600020905b81548152906001019060200180831161021757829003601f168201915b5050505050908060020154908060030154908060040154908060050154905086565b60008060008581526020019081526020016000206002015414156102af576040517f08c379a00000000000000000000000000000000000000000000000000000000081526004016102a690610e15565b60405180910390fd5b426000808581526020019081526020016000206002015411610306576040517f08c379a00000000000000000000000000000000000000000000000000000000081526004016102fd90610e81565b60405180910390fd5b81600160003373ffffffffffffffffffffffffffffffffffffffff1673ffffffffffffffffffffffffffffffffffffffff1681526020019081526020016000206000858152602001908152602001600020541015610399576040517f08c379a000000000000000000000000000000000000000000000000000000000815260040161039090610f13565b60405180910390fd5b81600160003373ffffffffffffffffffffffffffffffffffffffff1673ffffffffffffffffffffffffffffffffffffffff168152602001908152602001600020600085815260200190815260200160002060008282546103f99190610f62565b9250508190555081600160008373ffffffffffffffffffffffffffffffffffffffff1673ffffffffffffffffffffffffffffffffffffffff168152602001908152602001600020600085815260200190815260200160002060008282546104609190610f96565b92505081905550505050565b60008060008481526020019081526020016000206002015414156104c5576040517f08c379a00000000000000000000000000000000000000000000000000000000081526004016104bc9061105e565b60405180910390fd5b42600080848152602001908152602001600020600201541161051c576040517f08c379a0000000000000000000000000000000000000000000000000000000008152600401610513906110f0565b60405180910390fd5b600080600084815260200190815260200160002090508181600301546105429190611110565b3414610583576040517f08c379a000000000000000000000000000000000000000000000000000000000815260040161057a906111b6565b60405180910390fd5b81816005015410156105ca576040517f08c379a00000000000000000000000000000000000000000000000000000000081526004016105c190611222565b60405180910390fd5b818160050160008282546105de9190610f62565b9250508190555081600160003373ffffffffffffffffffffffffffffffffffffffff1673ffffffffffffffffffffffffffffffffffffffff168152602001908152602001600020600085815260200190815260200160002060008282546106459190610f96565b92505081905550505050565b60025481565b6001602052816000526040600020602052806000526040600020600091509150505481565b4283116106be576040517f08c379a00000000000000000000000000000000000000000000000000000000081526004016106b5906110f0565b60405180910390fd5b60008111610701576040517f08c379a00000000000000000000000000000000000000000000000000000000081526004016106f8906112b4565b60405180910390fd5b6040518060c001604052803373ffffffffffffffffffffffffffffffffffffffff16815260200185815260200184815260200183815260200182815260200182815250600080600254815260200190815260200160002060008201518160000160006101000a81548173ffffffffffffffffffffffffffffffffffffffff021916908373ffffffffffffffffffffffffffffffffffffffff16021790555060208201518160010190805190602001906107bb929190610805565b5060408201518160020155606082015181600301556080820151816004015560a08201518160050155905050600260008154809291906107fa906112d4565b919050555050505050565b82805461081190610d71565b90600052602060002090601f016020900481019282610833576000855561087a565b82601f1061084c57805160ff191683800117855561087a565b8280016001018555821561087a579182015b8281111561087957825182559160200191906001019061085e565b5b509050610887919061088b565b5090565b5b808211156108a457600081600090555060010161088c565b5090565b6000604051905090565b600080fd5b600080fd5b6000819050919050565b6108cf816108bc565b81146108da57600080fd5b50565b6000813590506108ec816108c6565b92915050565b600060208284031215610908576109076108b2565b5b6000610916848285016108dd565b91505092915050565b600073ffffffffffffffffffffffffffffffffffffffff82169050919050565b600061094a8261091f565b9050919050565b61095a8161093f565b82525050565b600081519050919050565b600082825260208201905092915050565b60005b8381101561099a57808201518184015260208101905061097f565b838111156109a9576000848401525b50505050565b6000601f19601f8301169050919050565b60006109cb82610960565b6109d5818561096b565b93506109e581856020860161097c565b6109ee816109af565b840191505092915050565b610a02816108bc565b82525050565b600060c082019050610a1d6000830189610951565b8181036020830152610a2f81886109c0565b9050610a3e60408301876109f9565b610a4b60608301866109f9565b610a5860808301856109f9565b610a6560a08301846109f9565b979650505050505050565b610a798161093f565b8114610a8457600080fd5b50565b600081359050610a9681610a70565b92915050565b600080600060608486031215610ab557610ab46108b2565b5b6000610ac3868287016108dd565b9350506020610ad4868287016108dd565b9250506040610ae586828701610a87565b9150509250925092565b60008060408385031215610b0657610b056108b2565b5b6000610b14858286016108dd565b9250506020610b25858286016108dd565b9150509250929050565b6000602082019050610b4460008301846109f9565b92915050565b60008060408385031215610b6157610b606108b2565b5b6000610b6f85828601610a87565b9250506020610b80858286016108dd565b9150509250929050565b600080fd5b600080fd5b7f4e487b7100000000000000000000000000000000000000000000000000000000600052604160045260246000fd5b610bcc826109af565b810181811067ffffffffffffffff82111715610beb57610bea610b94565b5b80604052505050565b6000610bfe6108a8565b9050610c0a8282610bc3565b919050565b600067ffffffffffffffff821115610c2a57610c29610b94565b5b610c33826109af565b9050602081019050919050565b82818337600083830152505050565b6000610c62610c5d84610c0f565b610bf4565b905082815260208101848484011115610c7e57610c7d610b8f565b5b610c89848285610c40565b509392505050565b600082601f830112610ca657610ca5610b8a565b5b8135610cb6848260208601610c4f565b91505092915050565b60008060008060808587031215610cd957610cd86108b2565b5b600085013567ffffffffffffffff811115610cf757610cf66108b7565b5b610d0387828801610c91565b9450506020610d14878288016108dd565b9350506040610d25878288016108dd565b9250506060610d36878288016108dd565b91505092959194509250565b7f4e487b7100000000000000000000000000000000000000000000000000000000600052602260045260246000fd5b60006002820490506001821680610d8957607f821691505b60208210811415610d9d57610d9c610d42565b5b50919050565b7f534f52525921212120546865204576656e7420646f6573206e6f74206578697360008201527f7400000000000000000000000000000000000000000000000000000000000000602082015250565b6000610dff60218361096b565b9150610e0a82610da3565b604082019050919050565b60006020820190508181036000830152610e2e81610df2565b9050919050565b7f534f52525921212120546865204576656e742068617320656e64656400000000600082015250565b6000610e6b601c8361096b565b9150610e7682610e35565b602082019050919050565b60006020820190508181036000830152610e9a81610e5e565b9050919050565b7f534f52525921212120596f7520646f206e6f74206861766520456e6f7567682060008201527f5469636b65747300000000000000000000000000000000000000000000000000602082015250565b6000610efd60278361096b565b9150610f0882610ea1565b604082019050919050565b60006020820190508181036000830152610f2c81610ef0565b9050919050565b7f4e487b7100000000000000000000000000000000000000000000000000000000600052601160045260246000fd5b6000610f6d826108bc565b9150610f78836108bc565b925082821015610f8b57610f8a610f33565b5b828203905092915050565b6000610fa1826108bc565b9150610fac836108bc565b9250827fffffffffffffffffffffffffffffffffffffffffffffffffffffffffffffffff03821115610fe157610fe0610f33565b5b828201905092915050565b7f536f72727921212120546865204576656e7420646f65736e277420457869737460008201527f2e00000000000000000000000000000000000000000000000000000000000000602082015250565b600061104860218361096b565b915061105382610fec565b604082019050919050565b600060208201905081810360008301526110778161103b565b9050919050565b7f57414954212121204576656e742068617320616c72656164792050415354212160008201527f2100000000000000000000000000000000000000000000000000000000000000602082015250565b60006110da60218361096b565b91506110e58261107e565b604082019050919050565b60006020820190508181036000830152611109816110cd565b9050919050565b600061111b826108bc565b9150611126836108bc565b9250817fffffffffffffffffffffffffffffffffffffffffffffffffffffffffffffffff048311821515161561115f5761115e610f33565b5b828202905092915050565b7f536f727279212121204e6f7420456e6f7567682062616c616e63650000000000600082015250565b60006111a0601b8361096b565b91506111ab8261116a565b602082019050919050565b600060208201905081810360008301526111cf81611193565b9050919050565b7f536f727279212121205469636b6574732061726520534f4c44204f5554000000600082015250565b600061120c601d8361096b565b9150611217826111d6565b602082019050919050565b6000602082019050818103600083015261123b816111ff565b9050919050565b7f4865792c204576656e7473206e6565642061746c656173742031207469636b6560008201527f7400000000000000000000000000000000000000000000000000000000000000602082015250565b600061129e60218361096b565b91506112a982611242565b604082019050919050565b600060208201905081810360008301526112cd81611291565b9050919050565b60006112df826108bc565b91507fffffffffffffffffffffffffffffffffffffffffffffffffffffffffffffffff82141561131257611311610f33565b5b60018201905091905056fea2646970667358221220d63abfc80ade6d454b502c61d0e5f0dd71f561234869d3d1eb59c89acb257b9664736f6c63430008090033",
  "linkReferences": {},
  "deployedLinkReferences": {}
}