{
  "_format": "hh-sol-artifact-1",
  "contractName": "EventContract",
  "sourceName": "contracts/organiser.sol",
  "abi": [
    {
      "inputs": [
        {
          "internalType": "string",
          "name": "name",
          "type": "string"
        },
        {
          "internalType": "uint256",
          "name": "date",
          "type": "uint256"
        },
        {
          "internalType": "uint256",
          "name": "price",
          "type": "uint256"
        },
        {
          "internalType": "uint256",
          "name": "TotalTickets",
          "type": "uint256"
        }
      ],
      "name": "CreateEvent",
      "outputs": [],
      "stateMutability": "nonpayable",
      "type": "function"
    },
    {
      "inputs": [
        {
          "internalType": "uint256",
          "name": "id",
          "type": "uint256"
        },
        {
          "internalType": "uint256",
          "name": "Qty",
          "type": "uint256"
        }
      ],
      "name": "buyTicket",
      "outputs": [],
      "stateMutability": "payable",
      "type": "function"
    },
    {
      "inputs": [
        {
          "internalType": "uint256",
          "name": "",
          "type": "uint256"
        }
      ],
      "name": "events",
      "outputs": [
        {
          "internalType": "address",
          "name": "organiser",
          "type": "address"
        },
        {
          "internalType": "string",
          "name": "name",
          "type": "string"
        },
        {
          "internalType": "uint256",
          "name": "date",
          "type": "uint256"
        },
        {
          "internalType": "uint256",
          "name": "price",
          "type": "uint256"
        },
        {
          "internalType": "uint256",
          "name": "TotalTickets",
          "type": "uint256"
        },
        {
          "internalType": "uint256",
          "name": "ticketLeft",
          "type": "uint256"
        }
      ],
      "stateMutability": "view",
      "type": "function"
    },
    {
      "inputs": [],
      "name": "nextId",
      "outputs": [
        {
          "internalType": "uint256",
          "name": "",
          "type": "uint256"
        }
      ],
      "stateMutability": "view",
      "type": "function"
    },
    {
      "inputs": [
        {
          "internalType": "address",
          "name": "",
          "type": "address"
        },
        {
          "internalType": "uint256",
          "name": "",
          "type": "uint256"
        }
      ],
      "name": "tickets",
      "outputs": [
        {
          "internalType": "uint256",
          "name": "",
          "type": "uint256"
        }
      ],
      "stateMutability": "view",
      "type": "function"
    },
    {
      "inputs": [
        {
          "internalType": "uint256",
          "name": "eventID",
          "type": "uint256"
        },
        {
          "internalType": "uint256",
          "name": "quantity",
          "type": "uint256"
        },
        {
          "internalType": "address",
          "name": "to",
          "type": "address"
        }
      ],
      "name": "transfer",
      "outputs": [],
      "stateMutability": "nonpayable",
      "type": "function"
    }
  ],
  "bytecode": "0x608060405234801561001057600080fd5b506114e0806100206000396000f3fe6080604052600436106100555760003560e01c80630b7914301461005a578063289df2cb1461009c578063298ec208146100c557806361b8ce8c146100e1578063dae7a13c1461010c578063e41bd06c14610149575b600080fd5b34801561006657600080fd5b50610081600480360381019061007c9190610846565b610172565b60405161009396959493929190610953565b60405180910390f35b3480156100a857600080fd5b506100c360048036038101906100be91906109e7565b610256565b005b6100df60048036038101906100da9190610a3a565b61046b565b005b3480156100ed57600080fd5b506100f661064f565b6040516101039190610a7a565b60405180910390f35b34801561011857600080fd5b50610133600480360381019061012e9190610a95565b610655565b6040516101409190610a7a565b60405180910390f35b34801561015557600080fd5b50610170600480360381019061016b9190610c0a565b61067a565b005b60006020528060005260406000206000915090508060000160009054906101000a900473ffffffffffffffffffffffffffffffffffffffff16908060010180546101bb90610cbc565b80601f01602080910402602001604051908101604052809291908181526020018280546101e790610cbc565b80156102345780601f1061020957610100808354040283529160200191610234565b820191906000526020600020905b81548152906001019060200180831161021757829003601f168201915b5050505050908060020154908060030154908060040154908060050154905086565b600080600085815260200190815260200160002060020154036102ae576040517f08c379a00000000000000000000000000000000000000000000000000000000081526004016102a590610d5f565b60405180910390fd5b426000808581526020019081526020016000206002015411610305576040517f08c379a00000000000000000000000000000000000000000000000000000000081526004016102fc90610dcb565b60405180910390fd5b81600160003373ffffffffffffffffffffffffffffffffffffffff1673ffffffffffffffffffffffffffffffffffffffff1681526020019081526020016000206000858152602001908152602001600020541015610398576040517f08c379a000000000000000000000000000000000000000000000000000000000815260040161038f90610e5d565b60405180910390fd5b81600160003373ffffffffffffffffffffffffffffffffffffffff1673ffffffffffffffffffffffffffffffffffffffff168152602001908152602001600020600085815260200190815260200160002060008282546103f89190610eac565b9250508190555081600160008373ffffffffffffffffffffffffffffffffffffffff1673ffffffffffffffffffffffffffffffffffffffff1681526020019081526020016000206000858152602001908152602001600020600082825461045f9190610ee0565b92505081905550505050565b600080600084815260200190815260200160002060020154036104c3576040517f08c379a00000000000000000000000000000000000000000000000000000000081526004016104ba90610f86565b60405180910390fd5b42600080848152602001908152602001600020600201541161051a576040517f08c379a000000000000000000000000000000000000000000000000000000000815260040161051190611018565b60405180910390fd5b600080600084815260200190815260200160002090508181600301546105409190611038565b3414610581576040517f08c379a0000000000000000000000000000000000000000000000000000000008152600401610578906110c6565b60405180910390fd5b81816005015410156105c8576040517f08c379a00000000000000000000000000000000000000000000000000000000081526004016105bf90611132565b60405180910390fd5b818160050160008282546105dc9190610eac565b9250508190555081600160003373ffffffffffffffffffffffffffffffffffffffff1673ffffffffffffffffffffffffffffffffffffffff168152602001908152602001600020600085815260200190815260200160002060008282546106439190610ee0565b92505081905550505050565b60025481565b6001602052816000526040600020602052806000526040600020600091509150505481565b4283116106bc576040517f08c379a00000000000000000000000000000000000000000000000000000000081526004016106b390611018565b60405180910390fd5b600081116106ff576040517f08c379a00000000000000000000000000000000000000000000000000000000081526004016106f6906111c4565b60405180910390fd5b6040518060c001604052803373ffffffffffffffffffffffffffffffffffffffff16815260200185815260200184815260200183815260200182815260200182815250600080600254815260200190815260200160002060008201518160000160006101000a81548173ffffffffffffffffffffffffffffffffffffffff021916908373ffffffffffffffffffffffffffffffffffffffff16021790555060208201518160010190816107b29190611390565b5060408201518160020155606082015181600301556080820151816004015560a08201518160050155905050600260008154809291906107f190611462565b919050555050505050565b6000604051905090565b600080fd5b600080fd5b6000819050919050565b61082381610810565b811461082e57600080fd5b50565b6000813590506108408161081a565b92915050565b60006020828403121561085c5761085b610806565b5b600061086a84828501610831565b91505092915050565b600073ffffffffffffffffffffffffffffffffffffffff82169050919050565b600061089e82610873565b9050919050565b6108ae81610893565b82525050565b600081519050919050565b600082825260208201905092915050565b60005b838110156108ee5780820151818401526020810190506108d3565b60008484015250505050565b6000601f19601f8301169050919050565b6000610916826108b4565b61092081856108bf565b93506109308185602086016108d0565b610939816108fa565b840191505092915050565b61094d81610810565b82525050565b600060c08201905061096860008301896108a5565b818103602083015261097a818861090b565b90506109896040830187610944565b6109966060830186610944565b6109a36080830185610944565b6109b060a0830184610944565b979650505050505050565b6109c481610893565b81146109cf57600080fd5b50565b6000813590506109e1816109bb565b92915050565b600080600060608486031215610a00576109ff610806565b5b6000610a0e86828701610831565b9350506020610a1f86828701610831565b9250506040610a30868287016109d2565b9150509250925092565b60008060408385031215610a5157610a50610806565b5b6000610a5f85828601610831565b9250506020610a7085828601610831565b9150509250929050565b6000602082019050610a8f6000830184610944565b92915050565b60008060408385031215610aac57610aab610806565b5b6000610aba858286016109d2565b9250506020610acb85828601610831565b9150509250929050565b600080fd5b600080fd5b7f4e487b7100000000000000000000000000000000000000000000000000000000600052604160045260246000fd5b610b17826108fa565b810181811067ffffffffffffffff82111715610b3657610b35610adf565b5b80604052505050565b6000610b496107fc565b9050610b558282610b0e565b919050565b600067ffffffffffffffff821115610b7557610b74610adf565b5b610b7e826108fa565b9050602081019050919050565b82818337600083830152505050565b6000610bad610ba884610b5a565b610b3f565b905082815260208101848484011115610bc957610bc8610ada565b5b610bd4848285610b8b565b509392505050565b600082601f830112610bf157610bf0610ad5565b5b8135610c01848260208601610b9a565b91505092915050565b60008060008060808587031215610c2457610c23610806565b5b600085013567ffffffffffffffff811115610c4257610c4161080b565b5b610c4e87828801610bdc565b9450506020610c5f87828801610831565b9350506040610c7087828801610831565b9250506060610c8187828801610831565b91505092959194509250565b7f4e487b7100000000000000000000000000000000000000000000000000000000600052602260045260246000fd5b60006002820490506001821680610cd457607f821691505b602082108103610ce757610ce6610c8d565b5b50919050565b7f534f52525921212120546865204576656e7420646f6573206e6f74206578697360008201527f7400000000000000000000000000000000000000000000000000000000000000602082015250565b6000610d496021836108bf565b9150610d5482610ced565b604082019050919050565b60006020820190508181036000830152610d7881610d3c565b9050919050565b7f534f52525921212120546865204576656e742068617320656e64656400000000600082015250565b6000610db5601c836108bf565b9150610dc082610d7f565b602082019050919050565b60006020820190508181036000830152610de481610da8565b9050919050565b7f534f52525921212120596f7520646f206e6f74206861766520456e6f7567682060008201527f5469636b65747300000000000000000000000000000000000000000000000000602082015250565b6000610e476027836108bf565b9150610e5282610deb565b604082019050919050565b60006020820190508181036000830152610e7681610e3a565b9050919050565b7f4e487b7100000000000000000000000000000000000000000000000000000000600052601160045260246000fd5b6000610eb782610810565b9150610ec283610810565b9250828203905081811115610eda57610ed9610e7d565b5b92915050565b6000610eeb82610810565b9150610ef683610810565b9250828201905080821115610f0e57610f0d610e7d565b5b92915050565b7f536f72727921212120546865204576656e7420646f65736e277420457869737460008201527f2e00000000000000000000000000000000000000000000000000000000000000602082015250565b6000610f706021836108bf565b9150610f7b82610f14565b604082019050919050565b60006020820190508181036000830152610f9f81610f63565b9050919050565b7f57414954212121204576656e742068617320616c72656164792050415354212160008201527f2100000000000000000000000000000000000000000000000000000000000000602082015250565b60006110026021836108bf565b915061100d82610fa6565b604082019050919050565b6000602082019050818103600083015261103181610ff5565b9050919050565b600061104382610810565b915061104e83610810565b925082820261105c81610810565b9150828204841483151761107357611072610e7d565b5b5092915050565b7f536f727279212121204e6f7420456e6f7567682062616c616e63650000000000600082015250565b60006110b0601b836108bf565b91506110bb8261107a565b602082019050919050565b600060208201905081810360008301526110df816110a3565b9050919050565b7f536f727279212121205469636b6574732061726520534f4c44204f5554000000600082015250565b600061111c601d836108bf565b9150611127826110e6565b602082019050919050565b6000602082019050818103600083015261114b8161110f565b9050919050565b7f4865792c204576656e7473206e6565642061746c656173742031207469636b6560008201527f7400000000000000000000000000000000000000000000000000000000000000602082015250565b60006111ae6021836108bf565b91506111b982611152565b604082019050919050565b600060208201905081810360008301526111dd816111a1565b9050919050565b60008190508160005260206000209050919050565b60006020601f8301049050919050565b600082821b905092915050565b6000600883026112467fffffffffffffffffffffffffffffffffffffffffffffffffffffffffffffffff82611209565b6112508683611209565b95508019841693508086168417925050509392505050565b6000819050919050565b600061128d61128861128384610810565b611268565b610810565b9050919050565b6000819050919050565b6112a783611272565b6112bb6112b382611294565b848454611216565b825550505050565b600090565b6112d06112c3565b6112db81848461129e565b505050565b5b818110156112ff576112f46000826112c8565b6001810190506112e1565b5050565b601f82111561134457611315816111e4565b61131e846111f9565b8101602085101561132d578190505b611341611339856111f9565b8301826112e0565b50505b505050565b600082821c905092915050565b600061136760001984600802611349565b1980831691505092915050565b60006113808383611356565b9150826002028217905092915050565b611399826108b4565b67ffffffffffffffff8111156113b2576113b1610adf565b5b6113bc8254610cbc565b6113c7828285611303565b600060209050601f8311600181146113fa57600084156113e8578287015190505b6113f28582611374565b86555061145a565b601f198416611408866111e4565b60005b828110156114305784890151825560018201915060208501945060208101905061140b565b8683101561144d5784890151611449601f891682611356565b8355505b6001600288020188555050505b505050505050565b600061146d82610810565b91507fffffffffffffffffffffffffffffffffffffffffffffffffffffffffffffffff820361149f5761149e610e7d565b5b60018201905091905056fea2646970667358221220234fa0b82fb4a8e57b91ff3e62226907d6085d4429fb3f6198285a1338e74cfc64736f6c63430008110033",
  "linkReferences": {},
  "deployedLinkReferences": {}
}